{
  "contractName": "PatientRegistry",
  "abi": [
    {
      "anonymous": false,
      "inputs": [
        {
          "indexed": false,
          "internalType": "string",
          "name": "patient_id",
          "type": "string"
        },
        {
          "indexed": true,
          "internalType": "address",
          "name": "requestor",
          "type": "address"
        },
        {
          "indexed": false,
          "internalType": "string[]",
          "name": "files",
          "type": "string[]"
        },
        {
          "indexed": false,
          "internalType": "string",
          "name": "timestamp",
          "type": "string"
        }
      ],
      "name": "AccessRequestAccepted",
      "type": "event"
    },
    {
      "anonymous": false,
      "inputs": [
        {
          "indexed": false,
          "internalType": "string",
          "name": "patient_id",
          "type": "string"
        },
        {
          "indexed": true,
          "internalType": "address",
          "name": "requestor",
          "type": "address"
        },
        {
          "indexed": false,
          "internalType": "string",
          "name": "timestamp",
          "type": "string"
        }
      ],
      "name": "AccessRequestCanceled",
      "type": "event"
    },
    {
      "anonymous": false,
      "inputs": [
        {
          "indexed": false,
          "internalType": "string",
          "name": "patient_id",
          "type": "string"
        },
        {
          "indexed": true,
          "internalType": "address",
          "name": "requestor",
          "type": "address"
        },
        {
          "indexed": false,
          "internalType": "string",
          "name": "timestamp",
          "type": "string"
        }
      ],
      "name": "AccessRequested",
      "type": "event"
    },
    {
      "anonymous": false,
      "inputs": [
        {
          "indexed": false,
          "internalType": "string",
          "name": "patient_id",
          "type": "string"
        },
        {
          "indexed": true,
          "internalType": "address",
          "name": "owner",
          "type": "address"
        },
        {
          "indexed": false,
          "internalType": "uint256",
          "name": "createdDate",
          "type": "uint256"
        },
        {
          "indexed": false,
          "internalType": "string[]",
          "name": "history",
          "type": "string[]"
        },
        {
          "indexed": false,
          "internalType": "string[]",
          "name": "txHashes",
          "type": "string[]"
        }
      ],
      "name": "PatientCreated",
      "type": "event"
    },
    {
      "anonymous": false,
      "inputs": [
        {
          "indexed": false,
          "internalType": "string",
          "name": "patient_id",
          "type": "string"
        },
        {
          "indexed": true,
          "internalType": "address",
          "name": "sharedWith",
          "type": "address"
        },
        {
          "indexed": false,
          "internalType": "string",
          "name": "timestamp",
          "type": "string"
        }
      ],
      "name": "PatientUnshared",
      "type": "event"
    },
    {
      "inputs": [
        {
          "internalType": "string",
          "name": "",
          "type": "string"
        }
      ],
      "name": "patients",
      "outputs": [
        {
          "internalType": "address",
          "name": "owner",
          "type": "address"
        },
        {
          "internalType": "string",
          "name": "patient_id",
          "type": "string"
        },
        {
          "internalType": "uint256",
          "name": "createdDate",
          "type": "uint256"
        }
      ],
      "stateMutability": "view",
      "type": "function",
      "constant": true
    },
    {
      "inputs": [
        {
          "internalType": "string",
          "name": "_patient_id",
          "type": "string"
        },
        {
          "internalType": "string",
          "name": "_historyEntry",
          "type": "string"
        },
        {
          "internalType": "string",
          "name": "_txHash",
          "type": "string"
        }
      ],
      "name": "createPatient",
      "outputs": [],
      "stateMutability": "nonpayable",
      "type": "function"
    },
    {
      "inputs": [
        {
          "internalType": "string",
          "name": "_patient_id",
          "type": "string"
        },
        {
          "internalType": "address",
          "name": "_requestor",
          "type": "address"
        },
        {
          "internalType": "string[]",
          "name": "_files",
          "type": "string[]"
        }
      ],
      "name": "acceptAccessRequest",
      "outputs": [],
      "stateMutability": "nonpayable",
      "type": "function"
    },
    {
      "inputs": [
        {
          "internalType": "string",
          "name": "_patient_id",
          "type": "string"
        },
        {
          "internalType": "address",
          "name": "_sharedWith",
          "type": "address"
        }
      ],
      "name": "unsharePatient",
      "outputs": [],
      "stateMutability": "nonpayable",
      "type": "function"
    },
    {
      "inputs": [
        {
          "internalType": "string",
          "name": "_patient_id",
          "type": "string"
        },
        {
          "internalType": "address",
          "name": "_requestor",
          "type": "address"
        }
      ],
      "name": "requestAccess",
      "outputs": [],
      "stateMutability": "nonpayable",
      "type": "function"
    },
    {
      "inputs": [
        {
          "internalType": "string",
          "name": "_patient_id",
          "type": "string"
        },
        {
          "internalType": "address",
          "name": "_requestor",
          "type": "address"
        }
      ],
      "name": "cancelAccessRequest",
      "outputs": [],
      "stateMutability": "nonpayable",
      "type": "function"
    },
    {
      "inputs": [
        {
          "internalType": "string",
          "name": "_patient_id",
          "type": "string"
        }
      ],
      "name": "getPatientHistory",
      "outputs": [
        {
          "internalType": "string[]",
          "name": "",
          "type": "string[]"
        },
        {
          "internalType": "string[]",
          "name": "",
          "type": "string[]"
        }
      ],
      "stateMutability": "view",
      "type": "function",
      "constant": true
    }
  ],
  "bytecode": "0x608060405234801561001057600080fd5b50612688806100206000396000f3fe608060405234801561001057600080fd5b506004361061007d5760003560e01c80632df96ebb1161005b5780632df96ebb146100d65780636988b0c1146100f2578063b93eafbd14610123578063c6009d841461013f5761007d565b806306b28dfc1461008257806317b9df441461009e57806323123f1a146100ba575b600080fd5b61009c60048036038101906100979190611678565b610171565b005b6100b860048036038101906100b39190611678565b61027c565b005b6100d460048036038101906100cf9190611678565b610413565b005b6100f060048036038101906100eb919061174b565b61068f565b005b61010c60048036038101906101079190611637565b610a7d565b60405161011a929190611daf565b60405180910390f35b61013d600480360381019061013891906116cc565b610c71565b005b61015960048036038101906101549190611637565b610d7f565b60405161016893929190611d71565b60405180910390f35b3373ffffffffffffffffffffffffffffffffffffffff166000836040516101989190611ce6565b908152602001604051809103902060000160009054906101000a900473ffffffffffffffffffffffffffffffffffffffff1673ffffffffffffffffffffffffffffffffffffffff1614610220576040517f08c379a000000000000000000000000000000000000000000000000000000000815260040161021790611f23565b60405180910390fd5b8073ffffffffffffffffffffffffffffffffffffffff167fd7d2bc3e1df3b48fec859da61420b167e35152e3d84ba4c16cab4c82e45be0268361026242610e67565b604051610270929190611e32565b60405180910390a25050565b600073ffffffffffffffffffffffffffffffffffffffff166000836040516102a49190611ce6565b908152602001604051809103902060000160009054906101000a900473ffffffffffffffffffffffffffffffffffffffff1673ffffffffffffffffffffffffffffffffffffffff16141561032d576040517f08c379a000000000000000000000000000000000000000000000000000000000815260040161032490611f43565b60405180910390fd5b600061033842610e67565b905060008360405161034a9190611ce6565b908152602001604051809103902060030161036483611031565b82604051602001610376929190611d37565b6040516020818303038152906040529080600181540180825580915050600190039060005260206000200160009091909190915090805190602001906103bd9291906113cc565b508173ffffffffffffffffffffffffffffffffffffffff167fcd6d424dbf019f17af129101080fce39145ea15abb724bc37307589696ee480e8483604051610406929190611e32565b60405180910390a2505050565b600073ffffffffffffffffffffffffffffffffffffffff1660008360405161043b9190611ce6565b908152602001604051809103902060000160009054906101000a900473ffffffffffffffffffffffffffffffffffffffff1673ffffffffffffffffffffffffffffffffffffffff1614156104c4576040517f08c379a00000000000000000000000000000000000000000000000000000000081526004016104bb90611f43565b60405180910390fd5b3373ffffffffffffffffffffffffffffffffffffffff166000836040516104eb9190611ce6565b908152602001604051809103902060000160009054906101000a900473ffffffffffffffffffffffffffffffffffffffff1673ffffffffffffffffffffffffffffffffffffffff16148061056a57503373ffffffffffffffffffffffffffffffffffffffff168173ffffffffffffffffffffffffffffffffffffffff16145b6105a9576040517f08c379a00000000000000000000000000000000000000000000000000000000081526004016105a090611ee3565b60405180910390fd5b60006105b442610e67565b90506000836040516105c69190611ce6565b90815260200160405180910390206003016105e083611031565b826040516020016105f2929190611cfd565b6040516020818303038152906040529080600181540180825580915050600190039060005260206000200160009091909190915090805190602001906106399291906113cc565b508173ffffffffffffffffffffffffffffffffffffffff167ffe7aa36df55eb3390c785d2a4ab6af4302a6c052681a2e701e2e2b17ae3830648483604051610682929190611e32565b60405180910390a2505050565b600080846040516106a09190611ce6565b908152602001604051809103902060010180546106bc906124b5565b9050146106fe576040517f08c379a00000000000000000000000000000000000000000000000000000000081526004016106f590611ec3565b60405180910390fd5b60004290506040518060a001604052803373ffffffffffffffffffffffffffffffffffffffff168152602001858152602001828152602001600167ffffffffffffffff811115610777577f4e487b7100000000000000000000000000000000000000000000000000000000600052604160045260246000fd5b6040519080825280602002602001820160405280156107aa57816020015b60608152602001906001900390816107955790505b508152602001600167ffffffffffffffff8111156107f1577f4e487b7100000000000000000000000000000000000000000000000000000000600052604160045260246000fd5b60405190808252806020026020018201604052801561082457816020015b606081526020019060019003908161080f5790505b508152506000856040516108389190611ce6565b908152602001604051809103902060008201518160000160006101000a81548173ffffffffffffffffffffffffffffffffffffffff021916908373ffffffffffffffffffffffffffffffffffffffff16021790555060208201518160010190805190602001906108a99291906113cc565b506040820151816002015560608201518160030190805190602001906108d0929190611452565b5060808201518160040190805190602001906108ed929190611452565b50905050826000856040516109029190611ce6565b908152602001604051809103902060030160008154811061094c577f4e487b7100000000000000000000000000000000000000000000000000000000600052603260045260246000fd5b9060005260206000200190805190602001906109699291906113cc565b508160008560405161097b9190611ce6565b90815260200160405180910390206004016000815481106109c5577f4e487b7100000000000000000000000000000000000000000000000000000000600052603260045260246000fd5b9060005260206000200190805190602001906109e29291906113cc565b503373ffffffffffffffffffffffffffffffffffffffff167f7a62008d7d554bf11f6742f7a7184b1ba4609b4cf35af52f12a0c334a461c75b8583600088604051610a2d9190611ce6565b9081526020016040518091039020600301600089604051610a4e9190611ce6565b9081526020016040518091039020600401604051610a6f9493929190611e69565b60405180910390a250505050565b606080600083604051610a909190611ce6565b9081526020016040518091039020600301600084604051610ab19190611ce6565b908152602001604051809103902060040181805480602002602001604051908101604052809291908181526020016000905b82821015610b8f578382906000526020600020018054610b02906124b5565b80601f0160208091040260200160405190810160405280929190818152602001828054610b2e906124b5565b8015610b7b5780601f10610b5057610100808354040283529160200191610b7b565b820191906000526020600020905b815481529060010190602001808311610b5e57829003601f168201915b505050505081526020019060010190610ae3565b50505050915080805480602002602001604051908101604052809291908181526020016000905b82821015610c62578382906000526020600020018054610bd5906124b5565b80601f0160208091040260200160405190810160405280929190818152602001828054610c01906124b5565b8015610c4e5780601f10610c2357610100808354040283529160200191610c4e565b820191906000526020600020905b815481529060010190602001808311610c3157829003601f168201915b505050505081526020019060010190610bb6565b50505050905091509150915091565b3373ffffffffffffffffffffffffffffffffffffffff16600084604051610c989190611ce6565b908152602001604051809103902060000160009054906101000a900473ffffffffffffffffffffffffffffffffffffffff1673ffffffffffffffffffffffffffffffffffffffff1614610d20576040517f08c379a0000000000000000000000000000000000000000000000000000000008152600401610d1790611f03565b60405180910390fd5b8173ffffffffffffffffffffffffffffffffffffffff167f02011a85c672ff6d79bb05762e11bad7c734e59ba15ed2138a7b26de89e9e2c08483610d6342610e67565b604051610d7293929190611de6565b60405180910390a2505050565b6000818051602081018201805184825260208301602085012081835280955050505050506000915090508060000160009054906101000a900473ffffffffffffffffffffffffffffffffffffffff1690806001018054610dde906124b5565b80601f0160208091040260200160405190810160405280929190818152602001828054610e0a906124b5565b8015610e575780601f10610e2c57610100808354040283529160200191610e57565b820191906000526020600020905b815481529060010190602001808311610e3a57829003601f168201915b5050505050908060020154905083565b60606000821415610eaf576040518060400160405280600181526020017f3000000000000000000000000000000000000000000000000000000000000000815250905061102c565b600082905060005b60008214610ee1578080610eca906124e7565b915050600a82610eda9190612130565b9150610eb7565b60008167ffffffffffffffff811115610f23577f4e487b7100000000000000000000000000000000000000000000000000000000600052604160045260246000fd5b6040519080825280601f01601f191660200182016040528015610f555781602001600182028036833780820191505090505b5090506000600183610f679190612398565b90505b60008614158015610f7b5750600081115b1561102457600a86610f8d9190612530565b6030610f9991906120a3565b60f81b828280610fa89061248b565b935081518110610fe1577f4e487b7100000000000000000000000000000000000000000000000000000000600052603260045260246000fd5b60200101907effffffffffffffffffffffffffffffffffffffffffffffffffffffffffffff1916908160001a905350600a8661101d9190612130565b9550610f6a565b819450505050505b919050565b60606000602a67ffffffffffffffff811115611076577f4e487b7100000000000000000000000000000000000000000000000000000000600052604160045260246000fd5b6040519080825280601f01601f1916602001820160405280156110a85781602001600182028036833780820191505090505b5090507f300000000000000000000000000000000000000000000000000000000000000081600081518110611106577f4e487b7100000000000000000000000000000000000000000000000000000000600052603260045260246000fd5b60200101907effffffffffffffffffffffffffffffffffffffffffffffffffffffffffffff1916908160001a9053507f780000000000000000000000000000000000000000000000000000000000000081600181518110611190577f4e487b7100000000000000000000000000000000000000000000000000000000600052603260045260246000fd5b60200101907effffffffffffffffffffffffffffffffffffffffffffffffffffffffffffff1916908160001a90535060005b601481101561137c5760008160136111da9190612398565b60086111e69190612303565b60026111f291906121e5565b8573ffffffffffffffffffffffffffffffffffffffff166112139190612130565b60f81b9050600060108260f81c61122a9190612161565b60f81b905060008160f81c6010611241919061235d565b8360f81c61124f91906123cc565b60f81b905061125d82611386565b85600286600261126d9190612303565b61127791906120a3565b815181106112ae577f4e487b7100000000000000000000000000000000000000000000000000000000600052603260045260246000fd5b60200101907effffffffffffffffffffffffffffffffffffffffffffffffffffffffffffff1916908160001a9053506112e681611386565b8560038660026112f69190612303565b61130091906120a3565b81518110611337577f4e487b7100000000000000000000000000000000000000000000000000000000600052603260045260246000fd5b60200101907effffffffffffffffffffffffffffffffffffffffffffffffffffffffffffff1916908160001a9053505050508080611374906124e7565b9150506111c2565b5080915050919050565b6000600a8260f81c60ff1610156113b15760308260f81c6113a791906120f9565b60f81b90506113c7565b60578260f81c6113c191906120f9565b60f81b90505b919050565b8280546113d8906124b5565b90600052602060002090601f0160209004810192826113fa5760008555611441565b82601f1061141357805160ff1916838001178555611441565b82800160010185558215611441579182015b82811115611440578251825591602001919060010190611425565b5b50905061144e91906114b2565b5090565b8280548282559060005260206000209081019282156114a1579160200282015b828111156114a05782518290805190602001906114909291906113cc565b5091602001919060010190611472565b5b5090506114ae91906114cf565b5090565b5b808211156114cb5760008160009055506001016114b3565b5090565b5b808211156114ef57600081816114e691906114f3565b506001016114d0565b5090565b5080546114ff906124b5565b6000825580601f106115115750611530565b601f01602090049060005260206000209081019061152f91906114b2565b5b50565b600061154661154184611f94565b611f63565b9050808382526020820190508260005b85811015611586578135850161156c888261160d565b845260208401935060208301925050600181019050611556565b5050509392505050565b60006115a361159e84611fc0565b611f63565b9050828152602081018484840111156115bb57600080fd5b6115c6848285612449565b509392505050565b6000813590506115dd8161263b565b92915050565b600082601f8301126115f457600080fd5b8135611604848260208601611533565b91505092915050565b600082601f83011261161e57600080fd5b813561162e848260208601611590565b91505092915050565b60006020828403121561164957600080fd5b600082013567ffffffffffffffff81111561166357600080fd5b61166f8482850161160d565b91505092915050565b6000806040838503121561168b57600080fd5b600083013567ffffffffffffffff8111156116a557600080fd5b6116b18582860161160d565b92505060206116c2858286016115ce565b9150509250929050565b6000806000606084860312156116e157600080fd5b600084013567ffffffffffffffff8111156116fb57600080fd5b6117078682870161160d565b9350506020611718868287016115ce565b925050604084013567ffffffffffffffff81111561173557600080fd5b611741868287016115e3565b9150509250925092565b60008060006060848603121561176057600080fd5b600084013567ffffffffffffffff81111561177a57600080fd5b6117868682870161160d565b935050602084013567ffffffffffffffff8111156117a357600080fd5b6117af8682870161160d565b925050604084013567ffffffffffffffff8111156117cc57600080fd5b6117d88682870161160d565b9150509250925092565b60006117ee8383611902565b905092915050565b600061180283836119a5565b905092915050565b61181381612400565b82525050565b60006118248261202a565b61182e8185612065565b93508360208202850161184085611ff0565b8060005b8581101561187c578484038952815161185d85826117e2565b94506118688361204b565b925060208a01995050600181019050611844565b50829750879550505050505092915050565b600061189982612035565b6118a38185612065565b9350836020820285016118b585612000565b8060005b858110156118f0578484038952816118d185826117f6565b94506118dc83612058565b925060208a019950506001810190506118b9565b50829750879550505050505092915050565b600061190d82612040565b6119178185612076565b9350611927818560208601612458565b6119308161261d565b840191505092915050565b600061194682612040565b6119508185612087565b9350611960818560208601612458565b6119698161261d565b840191505092915050565b600061197f82612040565b6119898185612098565b9350611999818560208601612458565b80840191505092915050565b600081546119b2816124b5565b6119bc8186612076565b945060018216600081146119d757600181146119e957611a1c565b60ff1983168652602086019350611a1c565b6119f285612015565b60005b83811015611a14578154818901526001820191506020810190506119f5565b808801955050505b50505092915050565b6000611a32601a83612087565b91507f50617469656e7420494420616c726561647920657869737473210000000000006000830152602082019050919050565b6000611a72600483612098565b91507f206f6e20000000000000000000000000000000000000000000000000000000006000830152600482019050919050565b6000611ab2603983612087565b91507f4f6e6c7920746865206f776e6572206f7220726571756573746f722063616e2060008301527f63616e63656c20746865206163636573732072657175657374000000000000006020830152604082019050919050565b6000611b18601283612098565b91507f41636365737320726571756573742062792000000000000000000000000000006000830152601282019050919050565b6000611b58602983612087565b91507f4f6e6c7920746865206f776e65722063616e206163636570742061636365737360008301527f20726571756573747300000000000000000000000000000000000000000000006020830152604082019050919050565b6000611bbe602683612087565b91507f4f6e6c7920746865206f776e65722063616e20756e736861726520746865207060008301527f617469656e7400000000000000000000000000000000000000000000000000006020830152604082019050919050565b6000611c24601483612098565b91507f41636365737320726571756573746564206279200000000000000000000000006000830152601482019050919050565b6000611c64601783612087565b91507f50617469656e7420646f6573206e6f74206578697374210000000000000000006000830152602082019050919050565b6000611ca4600e83612098565b91507f2063616e63656c6c6564206f6e200000000000000000000000000000000000006000830152600e82019050919050565b611ce081612432565b82525050565b6000611cf28284611974565b915081905092915050565b6000611d0882611b0b565b9150611d148285611974565b9150611d1f82611c97565b9150611d2b8284611974565b91508190509392505050565b6000611d4282611c17565b9150611d4e8285611974565b9150611d5982611a65565b9150611d658284611974565b91508190509392505050565b6000606082019050611d86600083018661180a565b8181036020830152611d98818561193b565b9050611da76040830184611cd7565b949350505050565b60006040820190508181036000830152611dc98185611819565b90508181036020830152611ddd8184611819565b90509392505050565b60006060820190508181036000830152611e00818661193b565b90508181036020830152611e148185611819565b90508181036040830152611e28818461193b565b9050949350505050565b60006040820190508181036000830152611e4c818561193b565b90508181036020830152611e60818461193b565b90509392505050565b60006080820190508181036000830152611e83818761193b565b9050611e926020830186611cd7565b8181036040830152611ea4818561188e565b90508181036060830152611eb8818461188e565b905095945050505050565b60006020820190508181036000830152611edc81611a25565b9050919050565b60006020820190508181036000830152611efc81611aa5565b9050919050565b60006020820190508181036000830152611f1c81611b4b565b9050919050565b60006020820190508181036000830152611f3c81611bb1565b9050919050565b60006020820190508181036000830152611f5c81611c57565b9050919050565b6000604051905081810181811067ffffffffffffffff82111715611f8a57611f896125ee565b5b8060405250919050565b600067ffffffffffffffff821115611faf57611fae6125ee565b5b602082029050602081019050919050565b600067ffffffffffffffff821115611fdb57611fda6125ee565b5b601f19601f8301169050602081019050919050565b6000819050602082019050919050565b60008190508160005260206000209050919050565b60008190508160005260206000209050919050565b600081519050919050565b600081549050919050565b600081519050919050565b6000602082019050919050565b6000600182019050919050565b600082825260208201905092915050565b600082825260208201905092915050565b600082825260208201905092915050565b600081905092915050565b60006120ae82612432565b91506120b983612432565b9250827fffffffffffffffffffffffffffffffffffffffffffffffffffffffffffffffff038211156120ee576120ed612561565b5b828201905092915050565b60006121048261243c565b915061210f8361243c565b92508260ff0382111561212557612124612561565b5b828201905092915050565b600061213b82612432565b915061214683612432565b92508261215657612155612590565b5b828204905092915050565b600061216c8261243c565b91506121778361243c565b92508261218757612186612590565b5b828204905092915050565b6000808291508390505b60018511156121dc578086048111156121b8576121b7612561565b5b60018516156121c75780820291505b80810290506121d58561262e565b945061219c565b94509492505050565b60006121f082612432565b91506121fb83612432565b92506122287fffffffffffffffffffffffffffffffffffffffffffffffffffffffffffffffff8484612230565b905092915050565b60008261224057600190506122fc565b8161224e57600090506122fc565b8160018114612264576002811461226e5761229d565b60019150506122fc565b60ff8411156122805761227f612561565b5b8360020a91508482111561229757612296612561565b5b506122fc565b5060208310610133831016604e8410600b84101617156122d25782820a9050838111156122cd576122cc612561565b5b6122fc565b6122df8484846001612192565b925090508184048111156122f6576122f5612561565b5b81810290505b9392505050565b600061230e82612432565b915061231983612432565b9250817fffffffffffffffffffffffffffffffffffffffffffffffffffffffffffffffff048311821515161561235257612351612561565b5b828202905092915050565b60006123688261243c565b91506123738361243c565b92508160ff048311821515161561238d5761238c612561565b5b828202905092915050565b60006123a382612432565b91506123ae83612432565b9250828210156123c1576123c0612561565b5b828203905092915050565b60006123d78261243c565b91506123e28361243c565b9250828210156123f5576123f4612561565b5b828203905092915050565b600061240b82612412565b9050919050565b600073ffffffffffffffffffffffffffffffffffffffff82169050919050565b6000819050919050565b600060ff82169050919050565b82818337600083830152505050565b60005b8381101561247657808201518184015260208101905061245b565b83811115612485576000848401525b50505050565b600061249682612432565b915060008214156124aa576124a9612561565b5b600182039050919050565b600060028204905060018216806124cd57607f821691505b602082108114156124e1576124e06125bf565b5b50919050565b60006124f282612432565b91507fffffffffffffffffffffffffffffffffffffffffffffffffffffffffffffffff82141561252557612524612561565b5b600182019050919050565b600061253b82612432565b915061254683612432565b92508261255657612555612590565b5b828206905092915050565b7f4e487b7100000000000000000000000000000000000000000000000000000000600052601160045260246000fd5b7f4e487b7100000000000000000000000000000000000000000000000000000000600052601260045260246000fd5b7f4e487b7100000000000000000000000000000000000000000000000000000000600052602260045260246000fd5b7f4e487b7100000000000000000000000000000000000000000000000000000000600052604160045260246000fd5b6000601f19601f8301169050919050565b60008160011c9050919050565b61264481612400565b811461264f57600080fd5b5056fea26469706673582212205c5d9476d145faa7c58c27b629fbcafe73ff9657d16ddfa67c036de9b1062e5b64736f6c63430008000033",
  "immutableReferences": {},
  "source": "//SPDX-License-Identifier: MIT\npragma solidity ^0.8.0;\n\ncontract PatientRegistry {\n    struct Patient {\n        address owner;\n        string patient_id;\n        uint256 createdDate;\n        string[] history;\n        string[] txHashes;\n    }\n\n    mapping(string => Patient) public patients;\n\n    event PatientCreated(\n        string patient_id,\n        address indexed owner,\n        uint256 createdDate,\n        string[] history,\n        string[] txHashes\n    );\n\n    event AccessRequestAccepted(\n        string patient_id,\n        address indexed requestor,\n        string[] files,\n        string timestamp\n    );\n\n    event PatientUnshared(\n        string patient_id,\n        address indexed sharedWith,\n        string timestamp\n    );\n\n    event AccessRequested(\n        string patient_id,\n        address indexed requestor,\n        string timestamp\n    );\n\n    event AccessRequestCanceled(\n        string patient_id,\n        address indexed requestor,\n        string timestamp\n    );\n\n    function createPatient(\n        string memory _patient_id,\n        string memory _historyEntry,\n        string memory _txHash\n    ) public {\n        require(\n            bytes(patients[_patient_id].patient_id).length == 0,\n            \"Patient ID already exists!\"\n        );\n\n        uint256 currentTime = block.timestamp;\n        patients[_patient_id] = Patient({\n            owner: msg.sender,\n            patient_id: _patient_id,\n            createdDate: currentTime,\n            history: new string[](1),\n            txHashes: new string[](1)\n        });\n        patients[_patient_id].history[0] = _historyEntry;\n        patients[_patient_id].txHashes[0] = _txHash;\n\n        emit PatientCreated(\n            _patient_id,\n            msg.sender,\n            currentTime,\n            patients[_patient_id].history,\n            patients[_patient_id].txHashes\n        );\n    }\n\n    function acceptAccessRequest(\n        string memory _patient_id,\n        address _requestor,\n        string[] memory _files\n    ) public {\n        require(\n            patients[_patient_id].owner == msg.sender,\n            \"Only the owner can accept access requests\"\n        );\n        emit AccessRequestAccepted(\n            _patient_id,\n            _requestor,\n            _files,\n            uint2str(block.timestamp)\n        );\n    }\n\n    function unsharePatient(\n        string memory _patient_id,\n        address _sharedWith\n    ) public {\n        require(\n            patients[_patient_id].owner == msg.sender,\n            \"Only the owner can unshare the patient\"\n        );\n        emit PatientUnshared(\n            _patient_id,\n            _sharedWith,\n            uint2str(block.timestamp)\n        );\n    }\n\n    function requestAccess(\n        string memory _patient_id,\n        address _requestor\n    ) public {\n        require(\n            patients[_patient_id].owner != address(0),\n            \"Patient does not exist!\"\n        );\n        string memory timestamp = uint2str(block.timestamp);\n        patients[_patient_id].history.push(\n            string(\n                abi.encodePacked(\n                    \"Access requested by \",\n                    toAsciiString(_requestor),\n                    \" on \",\n                    timestamp\n                )\n            )\n        );\n        emit AccessRequested(_patient_id, _requestor, timestamp);\n    }\n\n    function cancelAccessRequest(\n        string memory _patient_id,\n        address _requestor\n    ) public {\n        require(\n            patients[_patient_id].owner != address(0),\n            \"Patient does not exist!\"\n        );\n        require(\n            patients[_patient_id].owner == msg.sender ||\n                _requestor == msg.sender,\n            \"Only the owner or requestor can cancel the access request\"\n        );\n\n        string memory timestamp = uint2str(block.timestamp);\n        patients[_patient_id].history.push(\n            string(\n                abi.encodePacked(\n                    \"Access request by \",\n                    toAsciiString(_requestor),\n                    \" cancelled on \",\n                    timestamp\n                )\n            )\n        );\n\n        emit AccessRequestCanceled(_patient_id, _requestor, timestamp);\n    }\n\n    function uint2str(uint256 _i) internal pure returns (string memory) {\n        if (_i == 0) {\n            return \"0\";\n        }\n        uint256 j = _i;\n        uint256 length;\n        while (j != 0) {\n            length++;\n            j /= 10;\n        }\n        bytes memory bstr = new bytes(length);\n        uint256 k = length - 1;\n        while (_i != 0 && k > 0) {\n            bstr[k--] = bytes1(uint8(48 + (_i % 10)));\n            _i /= 10;\n        }\n        return string(bstr);\n    }\n\n    function toAsciiString(address x) internal pure returns (string memory) {\n        bytes memory s = new bytes(42);\n        s[0] = \"0\";\n        s[1] = \"x\";\n        for (uint i = 0; i < 20; i++) {\n            bytes1 b = bytes1(uint8(uint(uint160(x)) / (2 ** (8 * (19 - i)))));\n            bytes1 hi = bytes1(uint8(b) / 16);\n            bytes1 lo = bytes1(uint8(b) - 16 * uint8(hi));\n            s[2 * i + 2] = char(hi);\n            s[2 * i + 3] = char(lo);\n        }\n        return string(s);\n    }\n\n    function char(bytes1 b) internal pure returns (bytes1 c) {\n        if (uint8(b) < 10) return bytes1(uint8(b) + 0x30);\n        else return bytes1(uint8(b) + 0x57);\n    }\n\n    function getPatientHistory(\n        string memory _patient_id\n    ) public view returns (string[] memory, string[] memory) {\n        return (patients[_patient_id].history, patients[_patient_id].txHashes);\n    }\n}\n",
  "sourcePath": "/Users/aimenhallou/MedChainServer/contracts/PatientRegistry.sol",
  "compiler": {
    "name": "solc",
    "version": "0.8.0+commit.c7dfd78e.Emscripten.clang"
  },
  "schemaVersion": "3.2.3",
  "updatedAt": "2024-03-11T10:03:16.405Z",
  "networkType": "ethereum",
  "devdoc": {
    "kind": "dev",
    "methods": {},
    "version": 1
  },
  "userdoc": {
    "kind": "user",
    "methods": {},
    "version": 1
  }
}