{
  "contractName": "PatientRegistry",
  "abi": [
    {
      "anonymous": false,
      "inputs": [
        {
          "indexed": false,
          "internalType": "string",
          "name": "patient_id",
          "type": "string"
        },
        {
          "indexed": true,
          "internalType": "address",
          "name": "requestor",
          "type": "address"
        },
        {
          "indexed": false,
          "internalType": "string[]",
          "name": "files",
          "type": "string[]"
        },
        {
          "indexed": false,
          "internalType": "string",
          "name": "timestamp",
          "type": "string"
        }
      ],
      "name": "AccessRequestAccepted",
      "type": "event"
    },
    {
      "anonymous": false,
      "inputs": [
        {
          "indexed": false,
          "internalType": "string",
          "name": "patient_id",
          "type": "string"
        },
        {
          "indexed": true,
          "internalType": "address",
          "name": "requestor",
          "type": "address"
        },
        {
          "indexed": false,
          "internalType": "string",
          "name": "timestamp",
          "type": "string"
        }
      ],
      "name": "AccessRequestCanceled",
      "type": "event"
    },
    {
      "anonymous": false,
      "inputs": [
        {
          "indexed": false,
          "internalType": "string",
          "name": "patient_id",
          "type": "string"
        },
        {
          "indexed": true,
          "internalType": "address",
          "name": "requestor",
          "type": "address"
        },
        {
          "indexed": false,
          "internalType": "string",
          "name": "timestamp",
          "type": "string"
        }
      ],
      "name": "AccessRequested",
      "type": "event"
    },
    {
      "anonymous": false,
      "inputs": [
        {
          "indexed": false,
          "internalType": "string",
          "name": "patient_id",
          "type": "string"
        },
        {
          "indexed": true,
          "internalType": "address",
          "name": "owner",
          "type": "address"
        },
        {
          "indexed": false,
          "internalType": "uint256",
          "name": "createdDate",
          "type": "uint256"
        },
        {
          "indexed": false,
          "internalType": "string[]",
          "name": "history",
          "type": "string[]"
        },
        {
          "indexed": false,
          "internalType": "string[]",
          "name": "txHashes",
          "type": "string[]"
        }
      ],
      "name": "PatientCreated",
      "type": "event"
    },
    {
      "anonymous": false,
      "inputs": [
        {
          "indexed": false,
          "internalType": "string",
          "name": "patient_id",
          "type": "string"
        },
        {
          "indexed": true,
          "internalType": "address",
          "name": "sharedWith",
          "type": "address"
        },
        {
          "indexed": false,
          "internalType": "string",
          "name": "timestamp",
          "type": "string"
        }
      ],
      "name": "PatientUnshared",
      "type": "event"
    },
    {
      "inputs": [
        {
          "internalType": "string",
          "name": "",
          "type": "string"
        }
      ],
      "name": "patients",
      "outputs": [
        {
          "internalType": "address",
          "name": "owner",
          "type": "address"
        },
        {
          "internalType": "string",
          "name": "patient_id",
          "type": "string"
        },
        {
          "internalType": "uint256",
          "name": "createdDate",
          "type": "uint256"
        }
      ],
      "stateMutability": "view",
      "type": "function",
      "constant": true
    },
    {
      "inputs": [
        {
          "internalType": "string",
          "name": "_patient_id",
          "type": "string"
        },
        {
          "internalType": "string",
          "name": "_historyEntry",
          "type": "string"
        },
        {
          "internalType": "string",
          "name": "_txHash",
          "type": "string"
        }
      ],
      "name": "createPatient",
      "outputs": [],
      "stateMutability": "nonpayable",
      "type": "function"
    },
    {
      "inputs": [
        {
          "internalType": "string",
          "name": "_patient_id",
          "type": "string"
        },
        {
          "internalType": "address",
          "name": "_requestor",
          "type": "address"
        },
        {
          "internalType": "string[]",
          "name": "_files",
          "type": "string[]"
        }
      ],
      "name": "acceptAccessRequest",
      "outputs": [],
      "stateMutability": "nonpayable",
      "type": "function"
    },
    {
      "inputs": [
        {
          "internalType": "string",
          "name": "_patient_id",
          "type": "string"
        },
        {
          "internalType": "address",
          "name": "_sharedWith",
          "type": "address"
        }
      ],
      "name": "unsharePatient",
      "outputs": [],
      "stateMutability": "nonpayable",
      "type": "function"
    },
    {
      "inputs": [
        {
          "internalType": "string",
          "name": "_patient_id",
          "type": "string"
        },
        {
          "internalType": "address",
          "name": "_requestor",
          "type": "address"
        }
      ],
      "name": "requestAccess",
      "outputs": [],
      "stateMutability": "nonpayable",
      "type": "function"
    },
    {
      "inputs": [
        {
          "internalType": "string",
          "name": "_patient_id",
          "type": "string"
        },
        {
          "internalType": "address",
          "name": "_requestor",
          "type": "address"
        }
      ],
      "name": "cancelAccessRequest",
      "outputs": [],
      "stateMutability": "nonpayable",
      "type": "function"
    },
    {
      "inputs": [
        {
          "internalType": "string",
          "name": "_patient_id",
          "type": "string"
        }
      ],
      "name": "getPatientHistory",
      "outputs": [
        {
          "internalType": "string[]",
          "name": "",
          "type": "string[]"
        },
        {
          "internalType": "string[]",
          "name": "",
          "type": "string[]"
        }
      ],
      "stateMutability": "view",
      "type": "function",
      "constant": true
    },
    {
      "inputs": [
        {
          "internalType": "string",
          "name": "_patient_id",
          "type": "string"
        },
        {
          "internalType": "string",
          "name": "_newTxHash",
          "type": "string"
        }
      ],
      "name": "updateTxHash",
      "outputs": [],
      "stateMutability": "nonpayable",
      "type": "function"
    }
  ],
  "bytecode": "0x608060405234801561001057600080fd5b506129ca806100206000396000f3fe608060405234801561001057600080fd5b50600436106100885760003560e01c80633d1184e11161005b5780633d1184e1146100fd5780636988b0c114610119578063b93eafbd1461014a578063c6009d841461016657610088565b806306b28dfc1461008d57806317b9df44146100a957806323123f1a146100c55780632df96ebb146100e1575b600080fd5b6100a760048036038101906100a291906118c8565b610198565b005b6100c360048036038101906100be91906118c8565b6102a3565b005b6100df60048036038101906100da91906118c8565b61043a565b005b6100fb60048036038101906100f69190611a07565b6106b6565b005b6101176004803603810190610112919061199b565b610aa4565b005b610133600480360381019061012e9190611887565b610ccd565b6040516101419291906120d1565b60405180910390f35b610164600480360381019061015f919061191c565b610ec1565b005b610180600480360381019061017b9190611887565b610fcf565b60405161018f93929190612093565b60405180910390f35b3373ffffffffffffffffffffffffffffffffffffffff166000836040516101bf9190612008565b908152602001604051809103902060000160009054906101000a900473ffffffffffffffffffffffffffffffffffffffff1673ffffffffffffffffffffffffffffffffffffffff1614610247576040517f08c379a000000000000000000000000000000000000000000000000000000000815260040161023e90612245565b60405180910390fd5b8073ffffffffffffffffffffffffffffffffffffffff167fd7d2bc3e1df3b48fec859da61420b167e35152e3d84ba4c16cab4c82e45be02683610289426110b7565b604051610297929190612154565b60405180910390a25050565b600073ffffffffffffffffffffffffffffffffffffffff166000836040516102cb9190612008565b908152602001604051809103902060000160009054906101000a900473ffffffffffffffffffffffffffffffffffffffff1673ffffffffffffffffffffffffffffffffffffffff161415610354576040517f08c379a000000000000000000000000000000000000000000000000000000000815260040161034b90612265565b60405180910390fd5b600061035f426110b7565b90506000836040516103719190612008565b908152602001604051809103902060030161038b83611281565b8260405160200161039d929190612059565b6040516020818303038152906040529080600181540180825580915050600190039060005260206000200160009091909190915090805190602001906103e492919061161c565b508173ffffffffffffffffffffffffffffffffffffffff167fcd6d424dbf019f17af129101080fce39145ea15abb724bc37307589696ee480e848360405161042d929190612154565b60405180910390a2505050565b600073ffffffffffffffffffffffffffffffffffffffff166000836040516104629190612008565b908152602001604051809103902060000160009054906101000a900473ffffffffffffffffffffffffffffffffffffffff1673ffffffffffffffffffffffffffffffffffffffff1614156104eb576040517f08c379a00000000000000000000000000000000000000000000000000000000081526004016104e290612265565b60405180910390fd5b3373ffffffffffffffffffffffffffffffffffffffff166000836040516105129190612008565b908152602001604051809103902060000160009054906101000a900473ffffffffffffffffffffffffffffffffffffffff1673ffffffffffffffffffffffffffffffffffffffff16148061059157503373ffffffffffffffffffffffffffffffffffffffff168173ffffffffffffffffffffffffffffffffffffffff16145b6105d0576040517f08c379a00000000000000000000000000000000000000000000000000000000081526004016105c790612205565b60405180910390fd5b60006105db426110b7565b90506000836040516105ed9190612008565b908152602001604051809103902060030161060783611281565b8260405160200161061992919061201f565b60405160208183030381529060405290806001815401808255809150506001900390600052602060002001600090919091909150908051906020019061066092919061161c565b508173ffffffffffffffffffffffffffffffffffffffff167ffe7aa36df55eb3390c785d2a4ab6af4302a6c052681a2e701e2e2b17ae38306484836040516106a9929190612154565b60405180910390a2505050565b600080846040516106c79190612008565b908152602001604051809103902060010180546106e3906127f7565b905014610725576040517f08c379a000000000000000000000000000000000000000000000000000000000815260040161071c906121e5565b60405180910390fd5b60004290506040518060a001604052803373ffffffffffffffffffffffffffffffffffffffff168152602001858152602001828152602001600167ffffffffffffffff81111561079e577f4e487b7100000000000000000000000000000000000000000000000000000000600052604160045260246000fd5b6040519080825280602002602001820160405280156107d157816020015b60608152602001906001900390816107bc5790505b508152602001600167ffffffffffffffff811115610818577f4e487b7100000000000000000000000000000000000000000000000000000000600052604160045260246000fd5b60405190808252806020026020018201604052801561084b57816020015b60608152602001906001900390816108365790505b5081525060008560405161085f9190612008565b908152602001604051809103902060008201518160000160006101000a81548173ffffffffffffffffffffffffffffffffffffffff021916908373ffffffffffffffffffffffffffffffffffffffff16021790555060208201518160010190805190602001906108d092919061161c565b506040820151816002015560608201518160030190805190602001906108f79291906116a2565b5060808201518160040190805190602001906109149291906116a2565b50905050826000856040516109299190612008565b9081526020016040518091039020600301600081548110610973577f4e487b7100000000000000000000000000000000000000000000000000000000600052603260045260246000fd5b90600052602060002001908051906020019061099092919061161c565b50816000856040516109a29190612008565b90815260200160405180910390206004016000815481106109ec577f4e487b7100000000000000000000000000000000000000000000000000000000600052603260045260246000fd5b906000526020600020019080519060200190610a0992919061161c565b503373ffffffffffffffffffffffffffffffffffffffff167f7a62008d7d554bf11f6742f7a7184b1ba4609b4cf35af52f12a0c334a461c75b8583600088604051610a549190612008565b9081526020016040518091039020600301600089604051610a759190612008565b9081526020016040518091039020600401604051610a96949392919061218b565b60405180910390a250505050565b60008083604051610ab59190612008565b90815260200160405180910390206001018054610ad1906127f7565b90501415610b14576040517f08c379a0000000000000000000000000000000000000000000000000000000008152600401610b0b90612265565b60405180910390fd5b3373ffffffffffffffffffffffffffffffffffffffff16600083604051610b3b9190612008565b908152602001604051809103902060000160009054906101000a900473ffffffffffffffffffffffffffffffffffffffff1673ffffffffffffffffffffffffffffffffffffffff1614610bc3576040517f08c379a0000000000000000000000000000000000000000000000000000000008152600401610bba90612285565b60405180910390fd5b60008083604051610bd49190612008565b9081526020016040518091039020600401805490501115610c6d5780600083604051610c009190612008565b9081526020016040518091039020600401600081548110610c4a577f4e487b7100000000000000000000000000000000000000000000000000000000600052603260045260246000fd5b906000526020600020019080519060200190610c6792919061161c565b50610cc9565b600082604051610c7d9190612008565b908152602001604051809103902060040181908060018154018082558091505060019003906000526020600020016000909190919091509080519060200190610cc792919061161c565b505b5050565b606080600083604051610ce09190612008565b9081526020016040518091039020600301600084604051610d019190612008565b908152602001604051809103902060040181805480602002602001604051908101604052809291908181526020016000905b82821015610ddf578382906000526020600020018054610d52906127f7565b80601f0160208091040260200160405190810160405280929190818152602001828054610d7e906127f7565b8015610dcb5780601f10610da057610100808354040283529160200191610dcb565b820191906000526020600020905b815481529060010190602001808311610dae57829003601f168201915b505050505081526020019060010190610d33565b50505050915080805480602002602001604051908101604052809291908181526020016000905b82821015610eb2578382906000526020600020018054610e25906127f7565b80601f0160208091040260200160405190810160405280929190818152602001828054610e51906127f7565b8015610e9e5780601f10610e7357610100808354040283529160200191610e9e565b820191906000526020600020905b815481529060010190602001808311610e8157829003601f168201915b505050505081526020019060010190610e06565b50505050905091509150915091565b3373ffffffffffffffffffffffffffffffffffffffff16600084604051610ee89190612008565b908152602001604051809103902060000160009054906101000a900473ffffffffffffffffffffffffffffffffffffffff1673ffffffffffffffffffffffffffffffffffffffff1614610f70576040517f08c379a0000000000000000000000000000000000000000000000000000000008152600401610f6790612225565b60405180910390fd5b8173ffffffffffffffffffffffffffffffffffffffff167f02011a85c672ff6d79bb05762e11bad7c734e59ba15ed2138a7b26de89e9e2c08483610fb3426110b7565b604051610fc293929190612108565b60405180910390a2505050565b6000818051602081018201805184825260208301602085012081835280955050505050506000915090508060000160009054906101000a900473ffffffffffffffffffffffffffffffffffffffff169080600101805461102e906127f7565b80601f016020809104026020016040519081016040528092919081815260200182805461105a906127f7565b80156110a75780601f1061107c576101008083540402835291602001916110a7565b820191906000526020600020905b81548152906001019060200180831161108a57829003601f168201915b5050505050908060020154905083565b606060008214156110ff576040518060400160405280600181526020017f3000000000000000000000000000000000000000000000000000000000000000815250905061127c565b600082905060005b6000821461113157808061111a90612829565b915050600a8261112a9190612472565b9150611107565b60008167ffffffffffffffff811115611173577f4e487b7100000000000000000000000000000000000000000000000000000000600052604160045260246000fd5b6040519080825280601f01601f1916602001820160405280156111a55781602001600182028036833780820191505090505b50905060006001836111b791906126da565b90505b600086141580156111cb5750600081115b1561127457600a866111dd9190612872565b60306111e991906123e5565b60f81b8282806111f8906127cd565b935081518110611231577f4e487b7100000000000000000000000000000000000000000000000000000000600052603260045260246000fd5b60200101907effffffffffffffffffffffffffffffffffffffffffffffffffffffffffffff1916908160001a905350600a8661126d9190612472565b95506111ba565b819450505050505b919050565b60606000602a67ffffffffffffffff8111156112c6577f4e487b7100000000000000000000000000000000000000000000000000000000600052604160045260246000fd5b6040519080825280601f01601f1916602001820160405280156112f85781602001600182028036833780820191505090505b5090507f300000000000000000000000000000000000000000000000000000000000000081600081518110611356577f4e487b7100000000000000000000000000000000000000000000000000000000600052603260045260246000fd5b60200101907effffffffffffffffffffffffffffffffffffffffffffffffffffffffffffff1916908160001a9053507f7800000000000000000000000000000000000000000000000000000000000000816001815181106113e0577f4e487b7100000000000000000000000000000000000000000000000000000000600052603260045260246000fd5b60200101907effffffffffffffffffffffffffffffffffffffffffffffffffffffffffffff1916908160001a90535060005b60148110156115cc57600081601361142a91906126da565b60086114369190612645565b60026114429190612527565b8573ffffffffffffffffffffffffffffffffffffffff166114639190612472565b60f81b9050600060108260f81c61147a91906124a3565b60f81b905060008160f81c6010611491919061269f565b8360f81c61149f919061270e565b60f81b90506114ad826115d6565b8560028660026114bd9190612645565b6114c791906123e5565b815181106114fe577f4e487b7100000000000000000000000000000000000000000000000000000000600052603260045260246000fd5b60200101907effffffffffffffffffffffffffffffffffffffffffffffffffffffffffffff1916908160001a905350611536816115d6565b8560038660026115469190612645565b61155091906123e5565b81518110611587577f4e487b7100000000000000000000000000000000000000000000000000000000600052603260045260246000fd5b60200101907effffffffffffffffffffffffffffffffffffffffffffffffffffffffffffff1916908160001a90535050505080806115c490612829565b915050611412565b5080915050919050565b6000600a8260f81c60ff1610156116015760308260f81c6115f7919061243b565b60f81b9050611617565b60578260f81c611611919061243b565b60f81b90505b919050565b828054611628906127f7565b90600052602060002090601f01602090048101928261164a5760008555611691565b82601f1061166357805160ff1916838001178555611691565b82800160010185558215611691579182015b82811115611690578251825591602001919060010190611675565b5b50905061169e9190611702565b5090565b8280548282559060005260206000209081019282156116f1579160200282015b828111156116f05782518290805190602001906116e092919061161c565b50916020019190600101906116c2565b5b5090506116fe919061171f565b5090565b5b8082111561171b576000816000905550600101611703565b5090565b5b8082111561173f57600081816117369190611743565b50600101611720565b5090565b50805461174f906127f7565b6000825580601f106117615750611780565b601f01602090049060005260206000209081019061177f9190611702565b5b50565b6000611796611791846122d6565b6122a5565b9050808382526020820190508260005b858110156117d657813585016117bc888261185d565b8452602084019350602083019250506001810190506117a6565b5050509392505050565b60006117f36117ee84612302565b6122a5565b90508281526020810184848401111561180b57600080fd5b61181684828561278b565b509392505050565b60008135905061182d8161297d565b92915050565b600082601f83011261184457600080fd5b8135611854848260208601611783565b91505092915050565b600082601f83011261186e57600080fd5b813561187e8482602086016117e0565b91505092915050565b60006020828403121561189957600080fd5b600082013567ffffffffffffffff8111156118b357600080fd5b6118bf8482850161185d565b91505092915050565b600080604083850312156118db57600080fd5b600083013567ffffffffffffffff8111156118f557600080fd5b6119018582860161185d565b92505060206119128582860161181e565b9150509250929050565b60008060006060848603121561193157600080fd5b600084013567ffffffffffffffff81111561194b57600080fd5b6119578682870161185d565b93505060206119688682870161181e565b925050604084013567ffffffffffffffff81111561198557600080fd5b61199186828701611833565b9150509250925092565b600080604083850312156119ae57600080fd5b600083013567ffffffffffffffff8111156119c857600080fd5b6119d48582860161185d565b925050602083013567ffffffffffffffff8111156119f157600080fd5b6119fd8582860161185d565b9150509250929050565b600080600060608486031215611a1c57600080fd5b600084013567ffffffffffffffff811115611a3657600080fd5b611a428682870161185d565b935050602084013567ffffffffffffffff811115611a5f57600080fd5b611a6b8682870161185d565b925050604084013567ffffffffffffffff811115611a8857600080fd5b611a948682870161185d565b9150509250925092565b6000611aaa8383611bbe565b905092915050565b6000611abe8383611c61565b905092915050565b611acf81612742565b82525050565b6000611ae08261236c565b611aea81856123a7565b935083602082028501611afc85612332565b8060005b85811015611b385784840389528151611b198582611a9e565b9450611b248361238d565b925060208a01995050600181019050611b00565b50829750879550505050505092915050565b6000611b5582612377565b611b5f81856123a7565b935083602082028501611b7185612342565b8060005b85811015611bac57848403895281611b8d8582611ab2565b9450611b988361239a565b925060208a01995050600181019050611b75565b50829750879550505050505092915050565b6000611bc982612382565b611bd381856123b8565b9350611be381856020860161279a565b611bec8161295f565b840191505092915050565b6000611c0282612382565b611c0c81856123c9565b9350611c1c81856020860161279a565b611c258161295f565b840191505092915050565b6000611c3b82612382565b611c4581856123da565b9350611c5581856020860161279a565b80840191505092915050565b60008154611c6e816127f7565b611c7881866123b8565b94506001821660008114611c935760018114611ca557611cd8565b60ff1983168652602086019350611cd8565b611cae85612357565b60005b83811015611cd057815481890152600182019150602081019050611cb1565b808801955050505b50505092915050565b6000611cee601a836123c9565b91507f50617469656e7420494420616c726561647920657869737473210000000000006000830152602082019050919050565b6000611d2e6004836123da565b91507f206f6e20000000000000000000000000000000000000000000000000000000006000830152600482019050919050565b6000611d6e6039836123c9565b91507f4f6e6c7920746865206f776e6572206f7220726571756573746f722063616e2060008301527f63616e63656c20746865206163636573732072657175657374000000000000006020830152604082019050919050565b6000611dd46012836123da565b91507f41636365737320726571756573742062792000000000000000000000000000006000830152601282019050919050565b6000611e146029836123c9565b91507f4f6e6c7920746865206f776e65722063616e206163636570742061636365737360008301527f20726571756573747300000000000000000000000000000000000000000000006020830152604082019050919050565b6000611e7a6026836123c9565b91507f4f6e6c7920746865206f776e65722063616e20756e736861726520746865207060008301527f617469656e7400000000000000000000000000000000000000000000000000006020830152604082019050919050565b6000611ee06014836123da565b91507f41636365737320726571756573746564206279200000000000000000000000006000830152601482019050919050565b6000611f206017836123c9565b91507f50617469656e7420646f6573206e6f74206578697374210000000000000000006000830152602082019050919050565b6000611f60600e836123da565b91507f2063616e63656c6c6564206f6e200000000000000000000000000000000000006000830152600e82019050919050565b6000611fa06025836123c9565b91507f4f6e6c7920746865206f776e65722063616e207570646174652074686520747860008301527f486173682e0000000000000000000000000000000000000000000000000000006020830152604082019050919050565b61200281612774565b82525050565b60006120148284611c30565b915081905092915050565b600061202a82611dc7565b91506120368285611c30565b915061204182611f53565b915061204d8284611c30565b91508190509392505050565b600061206482611ed3565b91506120708285611c30565b915061207b82611d21565b91506120878284611c30565b91508190509392505050565b60006060820190506120a86000830186611ac6565b81810360208301526120ba8185611bf7565b90506120c96040830184611ff9565b949350505050565b600060408201905081810360008301526120eb8185611ad5565b905081810360208301526120ff8184611ad5565b90509392505050565b600060608201905081810360008301526121228186611bf7565b905081810360208301526121368185611ad5565b9050818103604083015261214a8184611bf7565b9050949350505050565b6000604082019050818103600083015261216e8185611bf7565b905081810360208301526121828184611bf7565b90509392505050565b600060808201905081810360008301526121a58187611bf7565b90506121b46020830186611ff9565b81810360408301526121c68185611b4a565b905081810360608301526121da8184611b4a565b905095945050505050565b600060208201905081810360008301526121fe81611ce1565b9050919050565b6000602082019050818103600083015261221e81611d61565b9050919050565b6000602082019050818103600083015261223e81611e07565b9050919050565b6000602082019050818103600083015261225e81611e6d565b9050919050565b6000602082019050818103600083015261227e81611f13565b9050919050565b6000602082019050818103600083015261229e81611f93565b9050919050565b6000604051905081810181811067ffffffffffffffff821117156122cc576122cb612930565b5b8060405250919050565b600067ffffffffffffffff8211156122f1576122f0612930565b5b602082029050602081019050919050565b600067ffffffffffffffff82111561231d5761231c612930565b5b601f19601f8301169050602081019050919050565b6000819050602082019050919050565b60008190508160005260206000209050919050565b60008190508160005260206000209050919050565b600081519050919050565b600081549050919050565b600081519050919050565b6000602082019050919050565b6000600182019050919050565b600082825260208201905092915050565b600082825260208201905092915050565b600082825260208201905092915050565b600081905092915050565b60006123f082612774565b91506123fb83612774565b9250827fffffffffffffffffffffffffffffffffffffffffffffffffffffffffffffffff038211156124305761242f6128a3565b5b828201905092915050565b60006124468261277e565b91506124518361277e565b92508260ff03821115612467576124666128a3565b5b828201905092915050565b600061247d82612774565b915061248883612774565b925082612498576124976128d2565b5b828204905092915050565b60006124ae8261277e565b91506124b98361277e565b9250826124c9576124c86128d2565b5b828204905092915050565b6000808291508390505b600185111561251e578086048111156124fa576124f96128a3565b5b60018516156125095780820291505b808102905061251785612970565b94506124de565b94509492505050565b600061253282612774565b915061253d83612774565b925061256a7fffffffffffffffffffffffffffffffffffffffffffffffffffffffffffffffff8484612572565b905092915050565b600082612582576001905061263e565b81612590576000905061263e565b81600181146125a657600281146125b0576125df565b600191505061263e565b60ff8411156125c2576125c16128a3565b5b8360020a9150848211156125d9576125d86128a3565b5b5061263e565b5060208310610133831016604e8410600b84101617156126145782820a90508381111561260f5761260e6128a3565b5b61263e565b61262184848460016124d4565b92509050818404811115612638576126376128a3565b5b81810290505b9392505050565b600061265082612774565b915061265b83612774565b9250817fffffffffffffffffffffffffffffffffffffffffffffffffffffffffffffffff0483118215151615612694576126936128a3565b5b828202905092915050565b60006126aa8261277e565b91506126b58361277e565b92508160ff04831182151516156126cf576126ce6128a3565b5b828202905092915050565b60006126e582612774565b91506126f083612774565b925082821015612703576127026128a3565b5b828203905092915050565b60006127198261277e565b91506127248361277e565b925082821015612737576127366128a3565b5b828203905092915050565b600061274d82612754565b9050919050565b600073ffffffffffffffffffffffffffffffffffffffff82169050919050565b6000819050919050565b600060ff82169050919050565b82818337600083830152505050565b60005b838110156127b857808201518184015260208101905061279d565b838111156127c7576000848401525b50505050565b60006127d882612774565b915060008214156127ec576127eb6128a3565b5b600182039050919050565b6000600282049050600182168061280f57607f821691505b6020821081141561282357612822612901565b5b50919050565b600061283482612774565b91507fffffffffffffffffffffffffffffffffffffffffffffffffffffffffffffffff821415612867576128666128a3565b5b600182019050919050565b600061287d82612774565b915061288883612774565b925082612898576128976128d2565b5b828206905092915050565b7f4e487b7100000000000000000000000000000000000000000000000000000000600052601160045260246000fd5b7f4e487b7100000000000000000000000000000000000000000000000000000000600052601260045260246000fd5b7f4e487b7100000000000000000000000000000000000000000000000000000000600052602260045260246000fd5b7f4e487b7100000000000000000000000000000000000000000000000000000000600052604160045260246000fd5b6000601f19601f8301169050919050565b60008160011c9050919050565b61298681612742565b811461299157600080fd5b5056fea264697066735822122045652354def6b727da4d7023216254e8aac36ecc4ed7f3f57338ee5ebf75041c64736f6c63430008000033",
  "immutableReferences": {},
  "source": "//SPDX-License-Identifier: MIT\npragma solidity ^0.8.0;\n\ncontract PatientRegistry {\n    struct Patient {\n        address owner;\n        string patient_id;\n        uint256 createdDate;\n        string[] history;\n        string[] txHashes;\n    }\n\n    mapping(string => Patient) public patients;\n\n    event PatientCreated(\n        string patient_id,\n        address indexed owner,\n        uint256 createdDate,\n        string[] history,\n        string[] txHashes\n    );\n\n    event AccessRequestAccepted(\n        string patient_id,\n        address indexed requestor,\n        string[] files,\n        string timestamp\n    );\n\n    event PatientUnshared(\n        string patient_id,\n        address indexed sharedWith,\n        string timestamp\n    );\n\n    event AccessRequested(\n        string patient_id,\n        address indexed requestor,\n        string timestamp\n    );\n\n    event AccessRequestCanceled(\n        string patient_id,\n        address indexed requestor,\n        string timestamp\n    );\n\n    function createPatient(\n        string memory _patient_id,\n        string memory _historyEntry,\n        string memory _txHash\n    ) public {\n        require(\n            bytes(patients[_patient_id].patient_id).length == 0,\n            \"Patient ID already exists!\"\n        );\n\n        uint256 currentTime = block.timestamp;\n        patients[_patient_id] = Patient({\n            owner: msg.sender,\n            patient_id: _patient_id,\n            createdDate: currentTime,\n            history: new string[](1),\n            txHashes: new string[](1)\n        });\n        patients[_patient_id].history[0] = _historyEntry;\n        patients[_patient_id].txHashes[0] = _txHash;\n\n        emit PatientCreated(\n            _patient_id,\n            msg.sender,\n            currentTime,\n            patients[_patient_id].history,\n            patients[_patient_id].txHashes\n        );\n    }\n\n    function acceptAccessRequest(\n        string memory _patient_id,\n        address _requestor,\n        string[] memory _files\n    ) public {\n        require(\n            patients[_patient_id].owner == msg.sender,\n            \"Only the owner can accept access requests\"\n        );\n        emit AccessRequestAccepted(\n            _patient_id,\n            _requestor,\n            _files,\n            uint2str(block.timestamp)\n        );\n    }\n\n    function unsharePatient(\n        string memory _patient_id,\n        address _sharedWith\n    ) public {\n        require(\n            patients[_patient_id].owner == msg.sender,\n            \"Only the owner can unshare the patient\"\n        );\n        emit PatientUnshared(\n            _patient_id,\n            _sharedWith,\n            uint2str(block.timestamp)\n        );\n    }\n\n    function requestAccess(\n        string memory _patient_id,\n        address _requestor\n    ) public {\n        require(\n            patients[_patient_id].owner != address(0),\n            \"Patient does not exist!\"\n        );\n        string memory timestamp = uint2str(block.timestamp);\n        patients[_patient_id].history.push(\n            string(\n                abi.encodePacked(\n                    \"Access requested by \",\n                    toAsciiString(_requestor),\n                    \" on \",\n                    timestamp\n                )\n            )\n        );\n        emit AccessRequested(_patient_id, _requestor, timestamp);\n    }\n\n    function cancelAccessRequest(\n        string memory _patient_id,\n        address _requestor\n    ) public {\n        require(\n            patients[_patient_id].owner != address(0),\n            \"Patient does not exist!\"\n        );\n        require(\n            patients[_patient_id].owner == msg.sender ||\n                _requestor == msg.sender,\n            \"Only the owner or requestor can cancel the access request\"\n        );\n\n        string memory timestamp = uint2str(block.timestamp);\n        patients[_patient_id].history.push(\n            string(\n                abi.encodePacked(\n                    \"Access request by \",\n                    toAsciiString(_requestor),\n                    \" cancelled on \",\n                    timestamp\n                )\n            )\n        );\n\n        emit AccessRequestCanceled(_patient_id, _requestor, timestamp);\n    }\n\n    function uint2str(uint256 _i) internal pure returns (string memory) {\n        if (_i == 0) {\n            return \"0\";\n        }\n        uint256 j = _i;\n        uint256 length;\n        while (j != 0) {\n            length++;\n            j /= 10;\n        }\n        bytes memory bstr = new bytes(length);\n        uint256 k = length - 1;\n        while (_i != 0 && k > 0) {\n            bstr[k--] = bytes1(uint8(48 + (_i % 10)));\n            _i /= 10;\n        }\n        return string(bstr);\n    }\n\n    function toAsciiString(address x) internal pure returns (string memory) {\n        bytes memory s = new bytes(42);\n        s[0] = \"0\";\n        s[1] = \"x\";\n        for (uint i = 0; i < 20; i++) {\n            bytes1 b = bytes1(uint8(uint(uint160(x)) / (2 ** (8 * (19 - i)))));\n            bytes1 hi = bytes1(uint8(b) / 16);\n            bytes1 lo = bytes1(uint8(b) - 16 * uint8(hi));\n            s[2 * i + 2] = char(hi);\n            s[2 * i + 3] = char(lo);\n        }\n        return string(s);\n    }\n\n    function char(bytes1 b) internal pure returns (bytes1 c) {\n        if (uint8(b) < 10) return bytes1(uint8(b) + 0x30);\n        else return bytes1(uint8(b) + 0x57);\n    }\n\n    function getPatientHistory(\n        string memory _patient_id\n    ) public view returns (string[] memory, string[] memory) {\n        return (patients[_patient_id].history, patients[_patient_id].txHashes);\n    }\n\n    function updateTxHash(\n        string memory _patient_id,\n        string memory _newTxHash\n    ) public {\n        require(\n            bytes(patients[_patient_id].patient_id).length != 0,\n            \"Patient does not exist!\"\n        );\n        require(\n            patients[_patient_id].owner == msg.sender,\n            \"Only the owner can update the txHash.\"\n        );\n\n        if (patients[_patient_id].txHashes.length > 0) {\n            patients[_patient_id].txHashes[0] = _newTxHash;\n        } else {\n            patients[_patient_id].txHashes.push(_newTxHash);\n        }\n    }\n}\n",
  "sourcePath": "/Users/aimenhallou/MedChainServer/contracts/PatientRegistry.sol",
  "compiler": {
    "name": "solc",
    "version": "0.8.0+commit.c7dfd78e.Emscripten.clang"
  },
  "schemaVersion": "3.2.3",
  "updatedAt": "2024-03-12T07:38:27.013Z",
  "networkType": "ethereum",
  "devdoc": {
    "kind": "dev",
    "methods": {},
    "version": 1
  },
  "userdoc": {
    "kind": "user",
    "methods": {},
    "version": 1
  }
}